{
  "contractName": "PlayItForward",
  "abi": [
    {
      "inputs": [],
      "stateMutability": "nonpayable",
      "type": "constructor"
    },
    {
      "anonymous": false,
      "inputs": [
        {
          "indexed": true,
          "internalType": "address",
          "name": "owner",
          "type": "address"
        },
        {
          "indexed": true,
          "internalType": "address",
          "name": "spender",
          "type": "address"
        },
        {
          "indexed": false,
          "internalType": "uint256",
          "name": "value",
          "type": "uint256"
        }
      ],
      "name": "Approval",
      "type": "event"
    },
    {
      "anonymous": false,
      "inputs": [
        {
          "indexed": true,
          "internalType": "address",
          "name": "from",
          "type": "address"
        },
        {
          "indexed": true,
          "internalType": "address",
          "name": "to",
          "type": "address"
        },
        {
          "indexed": false,
          "internalType": "uint256",
          "name": "value",
          "type": "uint256"
        }
      ],
      "name": "Transfer",
      "type": "event"
    },
    {
      "inputs": [
        {
          "internalType": "address",
          "name": "owner",
          "type": "address"
        },
        {
          "internalType": "address",
          "name": "spender",
          "type": "address"
        }
      ],
      "name": "allowance",
      "outputs": [
        {
          "internalType": "uint256",
          "name": "",
          "type": "uint256"
        }
      ],
      "stateMutability": "view",
      "type": "function"
    },
    {
      "inputs": [
        {
          "internalType": "address",
          "name": "spender",
          "type": "address"
        },
        {
          "internalType": "uint256",
          "name": "amount",
          "type": "uint256"
        }
      ],
      "name": "approve",
      "outputs": [
        {
          "internalType": "bool",
          "name": "",
          "type": "bool"
        }
      ],
      "stateMutability": "nonpayable",
      "type": "function"
    },
    {
      "inputs": [
        {
          "internalType": "address",
          "name": "account",
          "type": "address"
        }
      ],
      "name": "balanceOf",
      "outputs": [
        {
          "internalType": "uint256",
          "name": "",
          "type": "uint256"
        }
      ],
      "stateMutability": "view",
      "type": "function"
    },
    {
      "inputs": [
        {
          "internalType": "uint256",
          "name": "amount",
          "type": "uint256"
        }
      ],
      "name": "burn",
      "outputs": [],
      "stateMutability": "nonpayable",
      "type": "function"
    },
    {
      "inputs": [
        {
          "internalType": "address",
          "name": "account",
          "type": "address"
        },
        {
          "internalType": "uint256",
          "name": "amount",
          "type": "uint256"
        }
      ],
      "name": "burnFrom",
      "outputs": [],
      "stateMutability": "nonpayable",
      "type": "function"
    },
    {
      "inputs": [],
      "name": "decimals",
      "outputs": [
        {
          "internalType": "uint8",
          "name": "",
          "type": "uint8"
        }
      ],
      "stateMutability": "view",
      "type": "function"
    },
    {
      "inputs": [
        {
          "internalType": "address",
          "name": "spender",
          "type": "address"
        },
        {
          "internalType": "uint256",
          "name": "subtractedValue",
          "type": "uint256"
        }
      ],
      "name": "decreaseAllowance",
      "outputs": [
        {
          "internalType": "bool",
          "name": "",
          "type": "bool"
        }
      ],
      "stateMutability": "nonpayable",
      "type": "function"
    },
    {
      "inputs": [
        {
          "internalType": "address",
          "name": "spender",
          "type": "address"
        },
        {
          "internalType": "uint256",
          "name": "addedValue",
          "type": "uint256"
        }
      ],
      "name": "increaseAllowance",
      "outputs": [
        {
          "internalType": "bool",
          "name": "",
          "type": "bool"
        }
      ],
      "stateMutability": "nonpayable",
      "type": "function"
    },
    {
      "inputs": [],
      "name": "name",
      "outputs": [
        {
          "internalType": "string",
          "name": "",
          "type": "string"
        }
      ],
      "stateMutability": "view",
      "type": "function"
    },
    {
      "inputs": [],
      "name": "symbol",
      "outputs": [
        {
          "internalType": "string",
          "name": "",
          "type": "string"
        }
      ],
      "stateMutability": "view",
      "type": "function"
    },
    {
      "inputs": [],
      "name": "totalSupply",
      "outputs": [
        {
          "internalType": "uint256",
          "name": "",
          "type": "uint256"
        }
      ],
      "stateMutability": "view",
      "type": "function"
    },
    {
      "inputs": [
        {
          "internalType": "address",
          "name": "recipient",
          "type": "address"
        },
        {
          "internalType": "uint256",
          "name": "amount",
          "type": "uint256"
        }
      ],
      "name": "transfer",
      "outputs": [
        {
          "internalType": "bool",
          "name": "",
          "type": "bool"
        }
      ],
      "stateMutability": "nonpayable",
      "type": "function"
    },
    {
      "inputs": [
        {
          "internalType": "address",
          "name": "sender",
          "type": "address"
        },
        {
          "internalType": "address",
          "name": "recipient",
          "type": "address"
        },
        {
          "internalType": "uint256",
          "name": "amount",
          "type": "uint256"
        }
      ],
      "name": "transferFrom",
      "outputs": [
        {
          "internalType": "bool",
          "name": "",
          "type": "bool"
        }
      ],
      "stateMutability": "nonpayable",
      "type": "function"
    }
  ],
  "bytecode": "0x60806040523480156200001157600080fd5b506040518060400160405280600d81526020017f506c61794974466f7277617264000000000000000000000000000000000000008152506040518060400160405280600481526020017f50465744000000000000000000000000000000000000000000000000000000008152508160039080519060200190620000969291906200026c565b508060049080519060200190620000af9291906200026c565b505050620000e3336012600a620000c791906200045c565b620f4240620000d7919062000599565b620000e960201b60201c565b620006ce565b600073ffffffffffffffffffffffffffffffffffffffff168273ffffffffffffffffffffffffffffffffffffffff1614156200015c576040517f08c379a0000000000000000000000000000000000000000000000000000000008152600401620001539062000354565b60405180910390fd5b62000170600083836200026260201b60201c565b8060026000828254620001849190620003a4565b92505081905550806000808473ffffffffffffffffffffffffffffffffffffffff1673ffffffffffffffffffffffffffffffffffffffff1681526020019081526020016000206000828254620001db9190620003a4565b925050819055508173ffffffffffffffffffffffffffffffffffffffff16600073ffffffffffffffffffffffffffffffffffffffff167fddf252ad1be2c89b69c2b068fc378daa952ba7f163c4a11628f55a4df523b3ef8360405162000242919062000376565b60405180910390a36200025e600083836200026760201b60201c565b5050565b505050565b505050565b8280546200027a9062000604565b90600052602060002090601f0160209004810192826200029e5760008555620002ea565b82601f10620002b957805160ff1916838001178555620002ea565b82800160010185558215620002ea579182015b82811115620002e9578251825591602001919060010190620002cc565b5b509050620002f99190620002fd565b5090565b5b8082111562000318576000816000905550600101620002fe565b5090565b60006200032b601f8362000393565b91506200033882620006a5565b602082019050919050565b6200034e81620005fa565b82525050565b600060208201905081810360008301526200036f816200031c565b9050919050565b60006020820190506200038d600083018462000343565b92915050565b600082825260208201905092915050565b6000620003b182620005fa565b9150620003be83620005fa565b9250827fffffffffffffffffffffffffffffffffffffffffffffffffffffffffffffffff03821115620003f657620003f56200063a565b5b828201905092915050565b6000808291508390505b600185111562000453578086048111156200042b576200042a6200063a565b5b60018516156200043b5780820291505b80810290506200044b8562000698565b94506200040b565b94509492505050565b60006200046982620005fa565b91506200047683620005fa565b9250620004a57fffffffffffffffffffffffffffffffffffffffffffffffffffffffffffffffff8484620004ad565b905092915050565b600082620004bf576001905062000592565b81620004cf576000905062000592565b8160018114620004e85760028114620004f35762000529565b600191505062000592565b60ff8411156200050857620005076200063a565b5b8360020a9150848211156200052257620005216200063a565b5b5062000592565b5060208310610133831016604e8410600b8410161715620005635782820a9050838111156200055d576200055c6200063a565b5b62000592565b62000572848484600162000401565b925090508184048111156200058c576200058b6200063a565b5b81810290505b9392505050565b6000620005a682620005fa565b9150620005b383620005fa565b9250817fffffffffffffffffffffffffffffffffffffffffffffffffffffffffffffffff0483118215151615620005ef57620005ee6200063a565b5b828202905092915050565b6000819050919050565b600060028204905060018216806200061d57607f821691505b6020821081141562000634576200063362000669565b5b50919050565b7f4e487b7100000000000000000000000000000000000000000000000000000000600052601160045260246000fd5b7f4e487b7100000000000000000000000000000000000000000000000000000000600052602260045260246000fd5b60008160011c9050919050565b7f45524332303a206d696e7420746f20746865207a65726f206164647265737300600082015250565b61188580620006de6000396000f3fe608060405234801561001057600080fd5b50600436106100cf5760003560e01c806342966c681161008c57806395d89b411161006657806395d89b4114610226578063a457c2d714610244578063a9059cbb14610274578063dd62ed3e146102a4576100cf565b806342966c68146101be57806370a08231146101da57806379cc67901461020a576100cf565b806306fdde03146100d4578063095ea7b3146100f257806318160ddd1461012257806323b872dd14610140578063313ce56714610170578063395093511461018e575b600080fd5b6100dc6102d4565b6040516100e9919061119f565b60405180910390f35b61010c60048036038101906101079190610f53565b610366565b6040516101199190611184565b60405180910390f35b61012a610384565b6040516101379190611301565b60405180910390f35b61015a60048036038101906101559190610f00565b61038e565b6040516101679190611184565b60405180910390f35b610178610486565b604051610185919061131c565b60405180910390f35b6101a860048036038101906101a39190610f53565b61048f565b6040516101b59190611184565b60405180910390f35b6101d860048036038101906101d39190610f93565b61053b565b005b6101f460048036038101906101ef9190610e93565b61054f565b6040516102019190611301565b60405180910390f35b610224600480360381019061021f9190610f53565b610597565b005b61022e610612565b60405161023b919061119f565b60405180910390f35b61025e60048036038101906102599190610f53565b6106a4565b60405161026b9190611184565b60405180910390f35b61028e60048036038101906102899190610f53565b61078f565b60405161029b9190611184565b60405180910390f35b6102be60048036038101906102b99190610ec0565b6107ad565b6040516102cb9190611301565b60405180910390f35b6060600380546102e390611465565b80601f016020809104026020016040519081016040528092919081815260200182805461030f90611465565b801561035c5780601f106103315761010080835404028352916020019161035c565b820191906000526020600020905b81548152906001019060200180831161033f57829003601f168201915b5050505050905090565b600061037a610373610834565b848461083c565b6001905092915050565b6000600254905090565b600061039b848484610a07565b6000600160008673ffffffffffffffffffffffffffffffffffffffff1673ffffffffffffffffffffffffffffffffffffffff16815260200190815260200160002060006103e6610834565b73ffffffffffffffffffffffffffffffffffffffff1673ffffffffffffffffffffffffffffffffffffffff16815260200190815260200160002054905082811015610466576040517f08c379a000000000000000000000000000000000000000000000000000000000815260040161045d90611241565b60405180910390fd5b61047a85610472610834565b85840361083c565b60019150509392505050565b60006012905090565b600061053161049c610834565b8484600160006104aa610834565b73ffffffffffffffffffffffffffffffffffffffff1673ffffffffffffffffffffffffffffffffffffffff16815260200190815260200160002060008873ffffffffffffffffffffffffffffffffffffffff1673ffffffffffffffffffffffffffffffffffffffff1681526020019081526020016000205461052c9190611353565b61083c565b6001905092915050565b61054c610546610834565b82610c88565b50565b60008060008373ffffffffffffffffffffffffffffffffffffffff1673ffffffffffffffffffffffffffffffffffffffff168152602001908152602001600020549050919050565b60006105aa836105a5610834565b6107ad565b9050818110156105ef576040517f08c379a00000000000000000000000000000000000000000000000000000000081526004016105e690611261565b60405180910390fd5b610603836105fb610834565b84840361083c565b61060d8383610c88565b505050565b60606004805461062190611465565b80601f016020809104026020016040519081016040528092919081815260200182805461064d90611465565b801561069a5780601f1061066f5761010080835404028352916020019161069a565b820191906000526020600020905b81548152906001019060200180831161067d57829003601f168201915b5050505050905090565b600080600160006106b3610834565b73ffffffffffffffffffffffffffffffffffffffff1673ffffffffffffffffffffffffffffffffffffffff16815260200190815260200160002060008573ffffffffffffffffffffffffffffffffffffffff1673ffffffffffffffffffffffffffffffffffffffff16815260200190815260200160002054905082811015610770576040517f08c379a0000000000000000000000000000000000000000000000000000000008152600401610767906112e1565b60405180910390fd5b61078461077b610834565b8585840361083c565b600191505092915050565b60006107a361079c610834565b8484610a07565b6001905092915050565b6000600160008473ffffffffffffffffffffffffffffffffffffffff1673ffffffffffffffffffffffffffffffffffffffff16815260200190815260200160002060008373ffffffffffffffffffffffffffffffffffffffff1673ffffffffffffffffffffffffffffffffffffffff16815260200190815260200160002054905092915050565b600033905090565b600073ffffffffffffffffffffffffffffffffffffffff168373ffffffffffffffffffffffffffffffffffffffff1614156108ac576040517f08c379a00000000000000000000000000000000000000000000000000000000081526004016108a3906112c1565b60405180910390fd5b600073ffffffffffffffffffffffffffffffffffffffff168273ffffffffffffffffffffffffffffffffffffffff16141561091c576040517f08c379a000000000000000000000000000000000000000000000000000000000815260040161091390611201565b60405180910390fd5b80600160008573ffffffffffffffffffffffffffffffffffffffff1673ffffffffffffffffffffffffffffffffffffffff16815260200190815260200160002060008473ffffffffffffffffffffffffffffffffffffffff1673ffffffffffffffffffffffffffffffffffffffff168152602001908152602001600020819055508173ffffffffffffffffffffffffffffffffffffffff168373ffffffffffffffffffffffffffffffffffffffff167f8c5be1e5ebec7d5bd14f71427d1e84f3dd0314c0f7b2291e5b200ac8c7c3b925836040516109fa9190611301565b60405180910390a3505050565b600073ffffffffffffffffffffffffffffffffffffffff168373ffffffffffffffffffffffffffffffffffffffff161415610a77576040517f08c379a0000000000000000000000000000000000000000000000000000000008152600401610a6e906112a1565b60405180910390fd5b600073ffffffffffffffffffffffffffffffffffffffff168273ffffffffffffffffffffffffffffffffffffffff161415610ae7576040517f08c379a0000000000000000000000000000000000000000000000000000000008152600401610ade906111c1565b60405180910390fd5b610af2838383610e5f565b60008060008573ffffffffffffffffffffffffffffffffffffffff1673ffffffffffffffffffffffffffffffffffffffff16815260200190815260200160002054905081811015610b78576040517f08c379a0000000000000000000000000000000000000000000000000000000008152600401610b6f90611221565b60405180910390fd5b8181036000808673ffffffffffffffffffffffffffffffffffffffff1673ffffffffffffffffffffffffffffffffffffffff16815260200190815260200160002081905550816000808573ffffffffffffffffffffffffffffffffffffffff1673ffffffffffffffffffffffffffffffffffffffff1681526020019081526020016000206000828254610c0b9190611353565b925050819055508273ffffffffffffffffffffffffffffffffffffffff168473ffffffffffffffffffffffffffffffffffffffff167fddf252ad1be2c89b69c2b068fc378daa952ba7f163c4a11628f55a4df523b3ef84604051610c6f9190611301565b60405180910390a3610c82848484610e64565b50505050565b600073ffffffffffffffffffffffffffffffffffffffff168273ffffffffffffffffffffffffffffffffffffffff161415610cf8576040517f08c379a0000000000000000000000000000000000000000000000000000000008152600401610cef90611281565b60405180910390fd5b610d0482600083610e5f565b60008060008473ffffffffffffffffffffffffffffffffffffffff1673ffffffffffffffffffffffffffffffffffffffff16815260200190815260200160002054905081811015610d8a576040517f08c379a0000000000000000000000000000000000000000000000000000000008152600401610d81906111e1565b60405180910390fd5b8181036000808573ffffffffffffffffffffffffffffffffffffffff1673ffffffffffffffffffffffffffffffffffffffff168152602001908152602001600020819055508160026000828254610de191906113a9565b92505081905550600073ffffffffffffffffffffffffffffffffffffffff168373ffffffffffffffffffffffffffffffffffffffff167fddf252ad1be2c89b69c2b068fc378daa952ba7f163c4a11628f55a4df523b3ef84604051610e469190611301565b60405180910390a3610e5a83600084610e64565b505050565b505050565b505050565b600081359050610e7881611821565b92915050565b600081359050610e8d81611838565b92915050565b600060208284031215610ea957610ea86114f5565b5b6000610eb784828501610e69565b91505092915050565b60008060408385031215610ed757610ed66114f5565b5b6000610ee585828601610e69565b9250506020610ef685828601610e69565b9150509250929050565b600080600060608486031215610f1957610f186114f5565b5b6000610f2786828701610e69565b9350506020610f3886828701610e69565b9250506040610f4986828701610e7e565b9150509250925092565b60008060408385031215610f6a57610f696114f5565b5b6000610f7885828601610e69565b9250506020610f8985828601610e7e565b9150509250929050565b600060208284031215610fa957610fa86114f5565b5b6000610fb784828501610e7e565b91505092915050565b610fc9816113ef565b82525050565b6000610fda82611337565b610fe48185611342565b9350610ff4818560208601611432565b610ffd816114fa565b840191505092915050565b6000611015602383611342565b91506110208261150b565b604082019050919050565b6000611038602283611342565b91506110438261155a565b604082019050919050565b600061105b602283611342565b9150611066826115a9565b604082019050919050565b600061107e602683611342565b9150611089826115f8565b604082019050919050565b60006110a1602883611342565b91506110ac82611647565b604082019050919050565b60006110c4602483611342565b91506110cf82611696565b604082019050919050565b60006110e7602183611342565b91506110f2826116e5565b604082019050919050565b600061110a602583611342565b915061111582611734565b604082019050919050565b600061112d602483611342565b915061113882611783565b604082019050919050565b6000611150602583611342565b915061115b826117d2565b604082019050919050565b61116f8161141b565b82525050565b61117e81611425565b82525050565b60006020820190506111996000830184610fc0565b92915050565b600060208201905081810360008301526111b98184610fcf565b905092915050565b600060208201905081810360008301526111da81611008565b9050919050565b600060208201905081810360008301526111fa8161102b565b9050919050565b6000602082019050818103600083015261121a8161104e565b9050919050565b6000602082019050818103600083015261123a81611071565b9050919050565b6000602082019050818103600083015261125a81611094565b9050919050565b6000602082019050818103600083015261127a816110b7565b9050919050565b6000602082019050818103600083015261129a816110da565b9050919050565b600060208201905081810360008301526112ba816110fd565b9050919050565b600060208201905081810360008301526112da81611120565b9050919050565b600060208201905081810360008301526112fa81611143565b9050919050565b60006020820190506113166000830184611166565b92915050565b60006020820190506113316000830184611175565b92915050565b600081519050919050565b600082825260208201905092915050565b600061135e8261141b565b91506113698361141b565b9250827fffffffffffffffffffffffffffffffffffffffffffffffffffffffffffffffff0382111561139e5761139d611497565b5b828201905092915050565b60006113b48261141b565b91506113bf8361141b565b9250828210156113d2576113d1611497565b5b828203905092915050565b60006113e8826113fb565b9050919050565b60008115159050919050565b600073ffffffffffffffffffffffffffffffffffffffff82169050919050565b6000819050919050565b600060ff82169050919050565b60005b83811015611450578082015181840152602081019050611435565b8381111561145f576000848401525b50505050565b6000600282049050600182168061147d57607f821691505b60208210811415611491576114906114c6565b5b50919050565b7f4e487b7100000000000000000000000000000000000000000000000000000000600052601160045260246000fd5b7f4e487b7100000000000000000000000000000000000000000000000000000000600052602260045260246000fd5b600080fd5b6000601f19601f8301169050919050565b7f45524332303a207472616e7366657220746f20746865207a65726f206164647260008201527f6573730000000000000000000000000000000000000000000000000000000000602082015250565b7f45524332303a206275726e20616d6f756e7420657863656564732062616c616e60008201527f6365000000000000000000000000000000000000000000000000000000000000602082015250565b7f45524332303a20617070726f766520746f20746865207a65726f20616464726560008201527f7373000000000000000000000000000000000000000000000000000000000000602082015250565b7f45524332303a207472616e7366657220616d6f756e742065786365656473206260008201527f616c616e63650000000000000000000000000000000000000000000000000000602082015250565b7f45524332303a207472616e7366657220616d6f756e742065786365656473206160008201527f6c6c6f77616e6365000000000000000000000000000000000000000000000000602082015250565b7f45524332303a206275726e20616d6f756e74206578636565647320616c6c6f7760008201527f616e636500000000000000000000000000000000000000000000000000000000602082015250565b7f45524332303a206275726e2066726f6d20746865207a65726f2061646472657360008201527f7300000000000000000000000000000000000000000000000000000000000000602082015250565b7f45524332303a207472616e736665722066726f6d20746865207a65726f20616460008201527f6472657373000000000000000000000000000000000000000000000000000000602082015250565b7f45524332303a20617070726f76652066726f6d20746865207a65726f2061646460008201527f7265737300000000000000000000000000000000000000000000000000000000602082015250565b7f45524332303a2064656372656173656420616c6c6f77616e63652062656c6f7760008201527f207a65726f000000000000000000000000000000000000000000000000000000602082015250565b61182a816113dd565b811461183557600080fd5b50565b6118418161141b565b811461184c57600080fd5b5056fea2646970667358221220f9ebad8306ec5dae41b57b1822050d18b62ab14c9cf2e8c411a61ad5af0074bd64736f6c63430008060033",
  "immutableReferences": {},
  "source": "// contracts/PlayItForward.sol\n// SPDX-License-Identifier: MIT\npragma solidity ^0.8.6;\n\n// Import ERC20Burnable from the OpenZeppelin Contracts library\nimport \"@openzeppelin/contracts/token/ERC20/extensions/ERC20Burnable.sol\";\n\nstring constant _tokenName = \"PlayItForward\";\nstring constant _tokenSymbol = \"PFWD\";\nuint256 constant _totalFixeDSupply = 1000000;\nuint256 constant _totalDecimalPoints = 18; // 18 decimal points\nuint256 constant _totalDecimals = 10**_totalDecimalPoints; //the relationship between Ether and Wei\n\n/**\n * @dev {PlayItForward} token, including:\n *\n *  - Mint the fixed supply of 1,00,000,000 tokens on creation (deflationary mechnism)\n *  - Disable future goverance by limiiting access control mechanism (for minting/pausing)\n *  - Enable the ability for holders to burn (aka destroy) their tokens\n *\n * This contract uses {ERC20Burnable} to include burn capabilities\n *\n */\ncontract PlayItForward is ERC20Burnable {\n    /**\n     * @dev Mints `fixedSupply` amount of token and transfers them to `owner`.\n     *\n     * See {ERC20-constructor}.\n     */\n    constructor() ERC20(_tokenName, _tokenSymbol) {\n        _mint(msg.sender, _totalFixeDSupply * _totalDecimals);\n    }\n}\n",
  "sourcePath": "/Users/val/Sandbox/workon/playitforward/playitforward/contracts/PlayItForward.sol",
  "compiler": {
    "name": "solc",
    "version": "0.8.6+commit.11564f7e.Emscripten.clang"
  },
  "schemaVersion": "3.4.1",
  "updatedAt": "2021-07-19T21:10:51.597Z",
  "devdoc": {
    "details": "{PlayItForward} token, including:  - Mint the fixed supply of 1,00,000,000 tokens on creation (deflationary mechnism)  - Disable future goverance by limiiting access control mechanism (for minting/pausing)  - Enable the ability for holders to burn (aka destroy) their tokens This contract uses {ERC20Burnable} to include burn capabilities",
    "kind": "dev",
    "methods": {
      "allowance(address,address)": {
        "details": "See {IERC20-allowance}."
      },
      "approve(address,uint256)": {
        "details": "See {IERC20-approve}. Requirements: - `spender` cannot be the zero address."
      },
      "balanceOf(address)": {
        "details": "See {IERC20-balanceOf}."
      },
      "burn(uint256)": {
        "details": "Destroys `amount` tokens from the caller. See {ERC20-_burn}."
      },
      "burnFrom(address,uint256)": {
        "details": "Destroys `amount` tokens from `account`, deducting from the caller's allowance. See {ERC20-_burn} and {ERC20-allowance}. Requirements: - the caller must have allowance for ``accounts``'s tokens of at least `amount`."
      },
      "constructor": {
        "details": "Mints `fixedSupply` amount of token and transfers them to `owner`. See {ERC20-constructor}."
      },
      "decimals()": {
        "details": "Returns the number of decimals used to get its user representation. For example, if `decimals` equals `2`, a balance of `505` tokens should be displayed to a user as `5,05` (`505 / 10 ** 2`). Tokens usually opt for a value of 18, imitating the relationship between Ether and Wei. This is the value {ERC20} uses, unless this function is overridden; NOTE: This information is only used for _display_ purposes: it in no way affects any of the arithmetic of the contract, including {IERC20-balanceOf} and {IERC20-transfer}."
      },
      "decreaseAllowance(address,uint256)": {
        "details": "Atomically decreases the allowance granted to `spender` by the caller. This is an alternative to {approve} that can be used as a mitigation for problems described in {IERC20-approve}. Emits an {Approval} event indicating the updated allowance. Requirements: - `spender` cannot be the zero address. - `spender` must have allowance for the caller of at least `subtractedValue`."
      },
      "increaseAllowance(address,uint256)": {
        "details": "Atomically increases the allowance granted to `spender` by the caller. This is an alternative to {approve} that can be used as a mitigation for problems described in {IERC20-approve}. Emits an {Approval} event indicating the updated allowance. Requirements: - `spender` cannot be the zero address."
      },
      "name()": {
        "details": "Returns the name of the token."
      },
      "symbol()": {
        "details": "Returns the symbol of the token, usually a shorter version of the name."
      },
      "totalSupply()": {
        "details": "See {IERC20-totalSupply}."
      },
      "transfer(address,uint256)": {
        "details": "See {IERC20-transfer}. Requirements: - `recipient` cannot be the zero address. - the caller must have a balance of at least `amount`."
      },
      "transferFrom(address,address,uint256)": {
        "details": "See {IERC20-transferFrom}. Emits an {Approval} event indicating the updated allowance. This is not required by the EIP. See the note at the beginning of {ERC20}. Requirements: - `sender` and `recipient` cannot be the zero address. - `sender` must have a balance of at least `amount`. - the caller must have allowance for ``sender``'s tokens of at least `amount`."
      }
    },
    "version": 1
  },
  "userdoc": {
    "kind": "user",
    "methods": {},
    "version": 1
  }
}